:020000040002F8
:10600000904E0020C1630200C9630200CB6302000E
:10601000CD630200CF630200D163020000000000E4
:10602000000000000000000000000000D363020038
:10603000D563020000000000D7630200D9630200AC
:10604000A1660200DB630200416A0200DB6302001A
:10605000DB630200DB630200D9640200DB63020041
:10606000DB630200DB630200DB630200DB63020030
:10607000DB630200DB630200DB630200DB63020020
:10608000DB630200F9660200DB630200DB630200EF
:106090001D670200DB63020021670200DB63020070
:1060A000DB630200DB630200DB630200DB630200F0
:1060B000DB630200DB630200000000000000000060
:1060C000DB630200DB630200DB630200DB630200D0
:1060D000DB630200DB630200DB6302000000000000
:1060E00000000000000000000000000000000000B0
:1060F00000000000000000000000000000000000A0
:10610000000000000000000000000000000000008F
:10611000000000000000000000000000000000007F
:10612000000000000000000000000000000000006F
:10613000000000000000000000000000000000005F
:10614000000000000000000000000000000000004F
:10615000000000000000000000000000000000003F
:10616000000000000000000000000000000000002F
:10617000000000000000000000000000000000001F
:10618000000000000000000000000000000000000F
:1061900000000000000000000000000000000000FF
:1061A00000000000000000000000000000000000EF
:1061B00000000000000000000000000000000000DF
:1061C00000000000000000000000000000000000CF
:1061D00000000000000000000000000000000000BF
:1061E00000000000000000000000000000000000AF
:1061F000000000000000000000000000000000009F
:10620000DFF80CD000F02AF9004800474180020076
:10621000904E002030B450E8012F93B2C48923443B
:106220008489A34228BF1B1B0489A34202BFBFF37A
:106230002F8F002007E0C3EA020340E80134002C5E
:10624000E9D14FF001000A6030BC704750E8012FDF
:10625000C2EA024240E801210029F7D1704730B478
:1062600050E8022F1FFAA2F3C488A34202BFBFF373
:106270002F8F00200DE0C48923448489A34228BFC6
:106280001B1BC2EA034340E80234002CE8D14FF064
:1062900001000A6030BC704750E8022FC2EA224277
:1062A00040E802210029F7D17047034653E8022F46
:1062B000D988B2EB324F4FF0000017BF92B241EADB
:1062C000014142EA014104E05A68B2EB324F08BF93
:1062D000012043E80212002AE8D1704730B4044696
:1062E00054E8000F0D4644E80053002BF8D1156028
:1062F00030BC704730B4044654E8000F40EA010552
:1063000044E80053002BF7D1156030BC704730B41F
:10631000044654E8000F00EA010544E80053002B4E
:10632000F7D1156030BC704730B4044654E8000F14
:1063300080EA010544E80053002BF7D1156030BC1A
:10634000704730B4044654E8000F00EB010544E800
:106350000053002BF7D1156030BC704730B40446B1
:1063600054E8000FA0EB010544E80053002BF7D1DF
:10637000156030BC704770B404464FF0000054E81C
:10638000006F0D68AE4207BF44E80023012044E8D7
:1063900000630E60002B1CBF0020F0E770BC70474C
:1063A00030B4044654E8000F88422CBF451A054615
:1063B00044E80053002BF5D1156030BC7047000055
:1063C0000648804706480047FEE7FEE7FEE7FEE78F
:1063D000FEE7FEE7FEE7FEE7FEE7FEE725670200D1
:1063E0000162020000487047FCB0020040EA01036D
:1063F0009B0703D009E008C9121F08C0042AFAD27B
:1064000003E011F8013B00F8013B521EF9D270473E
:10641000D2B201E000F8012B491EFBD270470022E6
:10642000F6E710B513460A4604461946FFF7F0FF93
:10643000204610BD421C10F8011B0029FBD1801A18
:10644000704730B504460020034600E05B1C9342D1
:1064500003D2E05CCD5C401BF8D030BD064C074D4C
:1064600006E0E06840F0010394E807009847103424
:10647000AC42F6D3FFF7C8FE44B8020064B802008D
:1064800070B58C1810F8015B15F0070301D110F8F6
:10649000013B2A1106D110F8012B03E010F8016B23
:1064A00001F8016B5B1EF9D12B0705D40023521EA6
:1064B0000DD401F8013BFAE710F8013BCB1A921C0E
:1064C00003E013F8015B01F8015B521EF9D5A1420C
:1064D000D8D3002070BD00002DE9F04700268AB017
:1064E000DFF85091B0464FF4807501243746069688
:1064F000284602F085FA38B1D9F80403204203D0C7
:10650000284602F073FA26432D1D64007F1CADB2AD
:10651000082FEDD34FF4BE74204602F071FA48B153
:10652000204602F063FA46F0004606AA0121002048
:1065300002F048FA404D16F0FF0F15D00127002455
:1065400037420DD009EB8401D1F81005D1F81015B0
:10655000C0F3042055F82420C1F3014102B1904753
:106560007F00641C082CEBD3002E5FDA4FF0FF3065
:10657000CDF8108054E0281910F8507F90F90000F1
:1065800027F0C008401C3BD007A9404601F0DCFEC4
:1065900010B34FEA9719404601F0D2F855F8207031
:1065A0001FB1B9F1030F03D006E0B9F1030F27D1F2
:1065B00004A9404601F0D0FE4FF0A04101EB880055
:1065C000D0F8000706A9C0F3014A404601F0BCFE1E
:1065D00018B1BAF1020F03D012E0BAF1030F0FD1D4
:1065E000B9F1030F08D1BAF1020F1DD002214046C4
:1065F00002F0CCF9761CF6B217B149464046B847CE
:10660000641C042CB7D3002E10D06A460121002050
:1066100002F0D8F906990098884207D006900498AD
:10662000002634460790A6E70321E0E70AB0BDE85C
:10663000F087000000600040FC26002000F01F02F0
:10664000012191404009800000F1E020C0F8801253
:10665000704700F01F02012191404009800000F1C5
:10666000E020C0F80011704700F01F0201219140A6
:106670004009800000F1E020C0F80012704749078F
:10668000090E002806DA00F00F0000F1E02080F883
:10669000141D704700F1E02080F8001470470000DE
:1066A00070B54FF48076304601F016FF114CB505F9
:1066B00060B1304601F017FF0120C5F8080360798A
:1066C00020B9012060712168002088474FF482764C
:1066D000304601F001FF00280AD0304601F003FFE8
:1066E0000220C5F808032168BDE870400120084772
:1066F00070BD00007820002007480021C0F840113C
:10670000C0F84411C0F84811C0F84C11C0F800118D
:10671000C0F8041104F0A4B80010014004F012B84D
:1067200002F0DEBEF0B5B5480023021D0178101D51
:1067300001254FF0805406290BD11678360708D171
:106740000678C6F30316032E06D0042E04D0052EB9
:1067500002D0062907D00EE0B4F82463A84FC6F390
:1067600004263E6002E01678360704D10678C6F3A8
:106770000316032E02D0062904D00FE0A24FA14E2B
:106780007E670EE01678360708D10678C6F3031642
:10679000032E06D0042E04D0052E02D0062907D0E1
:1067A0000EE0D4F84462994FC6F342363E6002E0F0
:1067B0001678360704D10678C6F30316032E02D0E6
:1067C000062906D011E0924E376827F080773760AF
:1067D0000EE01678360708D10678C6F30316032EA6
:1067E00006D0042E04D0052E02D006290AD011E0CE
:1067F0004FF08046C6F80C31C6F81031834E361F74
:10680000336002E01678360704D10678C6F3031623
:10681000032E02D0062905D00CE07C4F03266437F6
:106820003E600AE01678360704D10678C6F30316F0
:10683000032E02D006290DD014E0764F05263E60C7
:10684000744E78363560734E083633603F263F1DF0
:106850003E6002E01678360704D10678C6F30316C8
:10686000052E02D0062957D062E06B4E36686B4F7A
:106870003E60694E361D36683F1D3E60664E0836E6
:1068800036683F1D3E60644E0C3636683F1D3E60E4
:10689000614E103636683F1D3E605F4E14363668D6
:1068A0003F1D3E605C4E183636685C4F20373E60B8
:1068B000594E1C3636683F1D3E60574E20363668AE
:1068C0003F1D3E60544E243636683F1D3E60524E9A
:1068D000283636683F1D3E604F4E2C3636683F1DC9
:1068E0003E604D4E303636684C4F40373E604A4E23
:1068F000343636683F1D3E60474E383636683F1D99
:106900003E60454E3C3636683F1D3E60424E403646
:1069100036683F1D3E6002E01678360708D10678DB
:10692000C6F30316032E06D0042E04D0052E02D083
:10693000062907D019E0D4F85812394A01F04F015E
:10694000116002E0117809070FD10078C0F303103D
:10695000032803D0042801D0052806D13148016856
:10696000C90702D06FF001010160D4F83001062898
:1069700008D1D4F83401062804D12B48016841F429
:106980008061016022487438016841F4700101603F
:10699000BFF34F8FBFF36F8F4FF01021D1F800027C
:1069A000002803DBD1F80402002822DA1F4A156010
:1069B0001F480468002CFCD01524C1F8004205686B
:1069C000002DFCD0C1F8044201680029FCD01360FE
:1069D00001680029FCD0BFF34F8F0D48F0380168E3
:1069E000144A01F4E06111430160BFF34F8F00BF0F
:1069F000FDE7124910480860F0BD0000E00F00F00C
:106A0000403501400DF0ADBA00C007403C050040E4
:106A1000FCED00E0105600400404001020C50040CA
:106A2000E40E0040000400403C17004004E5014033
:106A300000E401400400FA050090D0035821002032
:106A400001480068004700008020002002E008C8DC
:106A5000121F08C1002AFAD170477047002001E0D8
:106A600001C1121F002AFBD170470000012120281C
:106A700003DA81400548014003E0402802DA20386B
:106A8000814009B10120704700207047FC06FFBD1E
:106A9000082806D228B1012803D0042801D00120FB
:106AA00070470020704710B501220221002000F03D
:106AB000A1FD08B1072810D107220221012000F012
:106AC00099FD08B1072808D100210A22084600F0E4
:106AD00091FD08B1072800D1002010BD70B5002439
:106AE000064D06E06868012110F8340002F0E2FD6E
:106AF000641C28788442F5D3002070BD88200020D3
:106B000072B602F01BFA00BF02F05AF80028FBD15F
:106B1000104C0121208801EB00400FA102F060F928
:106B200010480068C00700D000BE2088022101EB99
:106B300000400DA102F054F9BFF34F8F0948E4382B
:106B400001680D4A01F4E06111430160BFF34F8F0A
:106B500000BFFDE794210020466174616C206572DE
:106B6000726F7200F0ED00E053797374656D2072FE
:106B700065736574000000000400FA050EB500217D
:106B80000091CDE901106A4644F20100FFF7B8FF19
:106B90000EBD000070B503F077FB104800240B21F8
:106BA000047044700E4D817014206C602C706C70F9
:106BB000FFF744FD07211420FFF761FD1420FFF7C4
:106BC00048FD0848046007211120FFF758FD0548DB
:106BD000001F0068A860002070BD0000A8270020EA
:106BE000A82000200815014030B5EFF3108172B6DF
:106BF0000D4A9468012324B10370002900D162B6C4
:106C000030BD93604FF0E023D3F88051074C25400E
:106C10001560C3F88041D3F8844154605A17C3F813
:106C2000842100220270E8E7B4280020FC06FFBDA2
:106C30000B498A68002A11D000280FD1EFF3108089
:106C400072B60B684FF0E022C2F800314B68C2F810
:106C5000043100228A60002800D162B6704700002B
:106C6000B42800202DE9F041064608680C46411C76
:106C70004FF0A0474FF0010506D005FA00F1C7F824
:106C80000815206801F06EFE6068411C02D00021EA
:106C900001F056FE3168A069C1F82405607D227DAF
:106CA00031681043C1F86C05D4E900123068C0F8AF
:106CB0001425C0F80C15207D012815D1A068411CB1
:106CC00002D0002101F03CFEE068411C05D0854067
:106CD000C7F80855E06801F045FED4E902123068B3
:106CE000C0F80825C0F81015BDE8F0812DE9F04185
:106CF000064608680C46411C4FF0A0474FF00105BE
:106D000006D005FA00F1C7F80815206801F034FE36
:106D10006068411C02D0002101F01BFE3168A069AF
:106D2000C1F82405607D217D32680843C2F86C05F6
:106D3000D4E900123068C0F80C15C0F81425207D85
:106D4000012815D1A068411C02D0002101F001FEEC
:106D5000E068411C05D08540C7F80855E06801F09F
:106D60000BFED4E902123068C0F80825C0F81015EF
:106D7000BDE8F081F8B506464FF000001500ADF80B
:106D8000000015D009236A46304600F015F8044685
:106D9000BDF80000064458B154B12846FFF74AFB3D
:106DA000A04205D1224631462846FFF74AFB08B1EA
:106DB0000020F8BD0120F8BD70B588B182B1002473
:106DC000158803E0065D641C3444A4B2A54203D8D0
:106DD000061976789E4201D08C42F3D38C4201D3BF
:106DE000002070BDA11C1180005D401E80B270BDEE
:106DF00070B540B10C4D297839B1044603F028FA3A
:106E000028B1002070BD0E2070BD082070BDE8685C
:106E1000062807D20549226801EB8001401C0A6060
:106E2000E860EEE7042070BD4C2000209022002096
:106E300040B1054900220123CA600B70C1E901027B
:106E4000104670470E2070474C20002070B504009B
:106E50002DD000292BD020480078002827D020886A
:106E60000D46112815D0302804D0322807D03328F9
:106E70001ED109E0211D284603F08EF818E0211DDF
:106E8000284602F0B1FE13E0211D284602F086FFDD
:106E90000EE0A088B5F8CA12884209D1002085F812
:106EA000C70285F8C8024FF6FF70A5F8CA0270BD88
:106EB00095F8C8020028FAD020883028F7D34F2848
:106EC000F5D8A088B5F8CA128842F0D12846BDE8A6
:106ED000704000F011BE00004C20002048B1084A6C
:106EE000137843B1D26832B190F8C7222AB1112089
:106EF00070470E2070470820704700F0FDBD00006D
:106F00004C20002038B50188041D1F295BD01CDCF3
:106F100036484FF003021029008802EB00401ED0D3
:106F200011293FD01B295BD01D2959D1218CE06943
:106F30002F4A241DFFF71EFFD8B32D4A0123083224
:106F400002F10801A01C8CDF37E021293FD03B294A
:106F500047D0562944D18088132176DF2DE025A122
:106F600001F03EFF21880022254800F03BF908B1DE
:106F7000FFF704FE224821880022103000F004FAB6
:106F800008B1FFF7FBFD21881E48FFF7A7FF08B1F6
:106F9000FFF7F4FD012000F01BFBBDE838400020A6
:106FA00000F00EBB18A101F01BFFBDE8384003F054
:106FB000B9B91449083900208ADF002810D0BDE88B
:106FC0003840FFF7DBBD2088211D75DFF5E7002184
:106FD0000091808869468FDF002801D0FFF7CEFD41
:106FE00038BD8088132176DFE7E700009421002078
:106FF0002CAD0200436F6E6E65637465642E0000F5
:10700000A4210020781D0020446973636F6E6E65B3
:10701000637465642E00000010B51A4C0188606826
:1070200010290ED011292BD1401E606028D1FFF706
:107030003AFD002824D02168002921D0BDE8104065
:107040000847D0B900210122084600F0D3FA08B160
:1070500007280FD107220221012000F0CBFA08B146
:10706000072807D104220221002000F0C3FA20B132
:10707000072802D0216801B188476068401C606021
:1070800010BD0000442000202DE9F04F0746858800
:1070900002883D48012197B08346102A09D0112A61
:1070A00049D01A2A6CD1387AB1EB101F45D201228F
:1070B00044E0354C083CA068C0430B9061680BA8C5
:1070C00001F0D4F80B990CA800F0DCFB2C220CA9E1
:1070D0006846FFF78BF90026E946A04610E000BF9E
:1070E00009EB46005FF00004B0F804A008EB840050
:1070F0005146001D01F08EF8641C1D2CF6D3761C41
:107100000098B042ECD8142D05D317B00420BDE888
:10711000F04FFFF733BD2946584601F091F8294654
:1071200008F1040001F08CF8F87B012828D01648FB
:107130002946001D15E029461AE000220221B1EB84
:10714000101F01D2012600E000260F49083901F185
:107150001000041D294682B101F072F836B12946AB
:10716000204617B0BDE8F04F01F06AB82946204626
:1071700017B0BDE8F04F01F04DB801F04BF8F5E75E
:1071800017B0BDE8F08F00002022002070B518B3C2
:107190000288A2F57F41FF391CD0104C4388104D66
:1071A000206800EB8001401C00F00700206005EB28
:1071B000810102204B81C881081D086100248C8157
:1071C0000120087208714C710A80887003F082FBFC
:1071D000204670BD082070BD0E2070BD5C200020D0
:1071E000A825002040B1018022B11168C0F802102A
:1071F0009188C180002070470E20704730B5134D34
:10720000040085B02DCD8DE82D001DD0E1B10868BA
:10721000D0B100206080A080E0804FF6FF70208019
:107220000868A06004F10C01684662DF002809D1FB
:10723000207B8DF812004FF44070ADF8100004A8C8
:10724000FFF7D6FD05B030BD0E20FBE7E8AD02002C
:107250000EB5002921D000281FD00288112A25D080
:10726000382A1BD0392A18D10A46098883889942BE
:1072700013D14189938899420FD1C18901290CD139
:1072800002218DF800101188ADF80210007C8DF8F5
:10729000040093686946104698470EBD09888088A7
:1072A0008142FAD1BDE80E4003F014BB0A88808801
:1072B0008242F2D14FF6FF7008800020488088801B
:1072C000C8800EBD3EB50A78002A3ED18A88B2F544
:1072D000407F3AD18A79037B9A4236D101228DF8D8
:1072E00000204A88ADF80220002217E002EBC2031A
:1072F00001EB430333F80E4FA4F54074013C02D078
:10730000012C0AD103E01B89ADF8083005E01C8987
:10731000ADF806405B89ADF80430521C0B7A9342FD
:10732000E4D80188A1F57F42FF3A0BD0C18849B962
:10733000818839B9418829B90199C0F80210BDF88E
:107340000810C1808268694690473EBD58B10388E5
:10735000A3F57F41FF3904D041890122184600F08E
:10736000CDB9082070470E20704758B10388A3F5A7
:107370007F41FF3904D001890122184600F0BEB9CF
:10738000082070470E20704710B5134640B10180A9
:1073900023B118221946801CFFF728F8002010BDE1
:1073A0000E2010BD58B10388A3F57F41FF3904D0EA
:1073B000C1880122184600F0A1B9082070470E20AC
:1073C0007047000030B5184D040085B02DCD8DE814
:1073D0002D0027D031B3086820B34FF6FF7020800E
:1073E00000206080A080E08020816081A081E08119
:1073F00020826082A082E08220830868E06104F13C
:107400002001684662DF00280AD194F820008DF838
:1074100012004FF40070ADF8100004A8FFF7E8FC6C
:1074200005B030BD0E20FBE7F8AD02000A000146B2
:1074300025D0002923D010460A88112A0BD0382ADB
:1074400003D0392A1BD102F073BD00888988884295
:1074500015D103F063BA028889888A420FD14FF6AA
:10746000FF710180002141808180C18001814181C3
:107470008181C181018241828182C1820183704701
:1074800058B10388A3F57F41FF3904D081880122D8
:10749000184600F033B9082070470E20704758B1E5
:1074A0000388A3F57F41FF3904D0418801221846A3
:1074B00000F024B9082070470E20704730B50A78D4
:1074C00087B0002A4FD18A88B2F5007F4BD18A79E4
:1074D00090F820309A4246D101228DF800204A8847
:1074E000ADF80220002338E003EBC30201EB4202B7
:1074F00032F80E4FA4F20124062C2DD2DFE804F05E
:10750000030A11181F261489ADF810405289ADF8EE
:10751000042021E01489ADF812405289ADF806200C
:107520001AE01489ADF814405289ADF8082013E030
:107530001489ADF816405289ADF80A200CE0148980
:10754000ADF818405289ADF80C2005E01489ADF86B
:107550001A405289ADF80E205B1C0A7A9A42C3D8B1
:10756000C2696946904707B030BD00002DE9FC4173
:107570000646C0074FF000050ED0104F0024012230
:10758000385D009500231146019501F091F9641CC6
:10759000042CF4D300F024F8B0070DD5074E0024D6
:1075A000361D0022305D032300951146019501F040
:1075B0007FF9641C042CF4D3BDE8FC814AAD0200C1
:1075C0000249085C012101F0F2B900004AAD020055
:1075D0000249085C002101F0EAB900004AAD02004E
:1075E00010B500242046FFF7EBFF641C042CF9D3F0
:1075F00010BD000070B50023042810D20D4D00EB23
:107600004004012A02D101290CD00022094E00EBCE
:107610004000304461B1012906D0022906D0072379
:10762000184670BD0E30C2B22A55F9E74270F7E72E
:107630008270F5E70B2200202DE9F8430546861CF1
:1076400000208DF8000090460F464FF00109684673
:10765000FFF7CAFA1B4C20683860D4E90001401AD1
:10766000A16804F21C47081A0EE00121384600F018
:10767000F7FD00F097FC0146384600F0F1FDD4E933
:107680000001401AA168081A401C8642EDD8B8F1E2
:10769000000F03D0052065F3891002E0062065F392
:1076A0009F50A2682168114004EB8101C8602068E6
:1076B000304420609DF80000FFF7BAFA4846BDE864
:1076C000F88300006C2A002030B482680468531CE0
:1076D0008360A154D0E901128A4202D330BC00F089
:1076E00080BF30BC70470000034803C8814201D10D
:1076F00001207047002070476C2A002070B50E4DA5
:107700000E4E2C6804EB8403641C06EB830304F028
:1077100007042C6059810221D981191D19610021AA
:107720009981012119721A71120A5A71188099707F
:1077300003F0F4F8002070BD6420002048260020EB
:107740000249084490F9300070470000FC260020F0
:1077500008B5024690F8C6020B4600EB8001C1EB6B
:10776000801002EB400092F8C52242B1521ED2B204
:1077700002EBC20100EB4102518A491C00E0C188C2
:10778000ADF800100089ADF80200694618469DDF8B
:1077900008BD000070B5084C050009D01034216800
:1077A000002907D008682060496828468847F6E71E
:1077B0000834F4E770BD0000E8260020054A0121E6
:1077C00020B1012805D19170FFF7E4BF517000206E
:1077D000FAE77047E82600202DE9F05F2648416867
:1077E000F1B3DFF898B00E688146DBF80040876897
:1077F0008078E11B21F07F45ED1CB0B9DFF8808077
:107800004FF48030C8F84403C8F804031120FEF791
:1078100015FF1120FEF71DFF4FF0010AC8F800A068
:107820002F2001F03FFF89F802A0B54200D2354673
:10783000124BE8193C3320F07F401860DBF8001051
:107840005A46091B21F07F41001B20F07F40C91CD4
:1078500081420FD9106818602F2001F023FF00E04B
:1078600004E0BDE8F05F1120FEF7FEBEBDE8F05F6A
:1078700002F00ABDBDE8F09FA820002004150140D9
:107880000010014073B58CB00646002000900D98A2
:1078900080B100246D4621460DA800F0C6FC30B131
:1078A000009805EB400084800098401C0090641C08
:1078B000142CF0D32C2269463046FEF797FD0EB00B
:1078C00070BD0000F0B587B0074600200490ADF809
:1078D00010100590ADF812100190029001AA04A9B1
:1078E000384690DF060022D001F082FE114C03469C
:1078F000012520883A4605EB00400F4901F07BFA4C
:10790000BDF8042012B9BDF8060038B12088BDF8D2
:10791000063005EB004009A101F06DFABDF8082022
:107920002AB12088154905EB004001F05DFA07B047
:107930003046F0BD6021002000B10200546865208F
:107940007265717565737465642054582F525820A0
:107950007061636B6574206C656E67746820697311
:1079600020746F6F206C6F6E672062792025752FF1
:107970002575206F63746574732E00004CB102008E
:1079800010B5044601460548FFF79CFC2146034814
:10799000BDE810401030FFF791BD0000A421002089
:1079A0002DE9F843054690F8C6020F4600EB80012A
:1079B000C1EB801005EB400695F8C542914604EBFB
:1079C000C40006EB40013279601C0A31904226D196
:1079D0006B460022284600F0CBF918B310E0401E99
:1079E000A04201D1002004E004EBC40006EB4000FB
:1079F0001C30804602466B46284600F0B9F930B18B
:107A000000203870694648469EDFBDE8F88395F847
:107A1000C5024146401C641C85F8C502E4B23079B9
:107A2000A042DCD8012038700020EEE72DE9F047B5
:107A3000894690F8C612904601EB8102C2EB811193
:107A400000EB4107384602F003FC06002FD0194C2A
:107A5000A06806282BD2184D762205EBC0103946B7
:107A6000A0F80280001DFEF7C1FC0027B9F1000F4D
:107A700004D0A06805EBC010077004E0A1680220E4
:107A800005EBC1110870A06805EBC011401CCE6762
:107A9000A060E16888420AD1002604E005EBC61028
:107AA000C16F8847761CE0688642F7D3A760BDE8BF
:107AB000F08700004C200020A822002070B50E4660
:107AC00090F8C612154601EB8102C2EB8111A0B0FD
:107AD00000EB410002F0BCFB040009D07C22054908
:107AE0006846FEF783FCADF8025068460196A04751
:107AF00020B070BD54AD020070B50E4604464FF480
:107B00003371FEF78CFC11480025A4F8CA62856029
:107B100084F8C9520E4884F8C65284F8C5520068E9
:107B200020602246012130469BDF0121112806D02A
:107B3000002809D184F8C71284F8C85203E084F8F9
:107B4000C71284F8C812002070BD00004C2000202D
:107B50009022002010B50021024800F092FB80F333
:107B6000100010BD882E00200E4910B50A784C7800
:107B70000023A24212D0521CD2B20A70022A00D1B3
:107B80000B70084A0B780C3252F823200260886888
:107B9000104420F07F408860012010BD0360002069
:107BA00010BD0000A820002030B50446006887B052
:107BB0000D46806800281FD018216846FEF72FFC6C
:107BC0000195A0680590207910B1012810D107E037
:107BD00001208DF8000020690290E068039005E024
:107BE00002208DF80000E0680003029060690490B4
:107BF000206881686846884707B030BD2DE9FC5F82
:107C00000E008346DDE90C47C6F100009846924617
:107C1000814600D40846012503E000BF90FBFAF03E
:107C20006D1C5045FADAA84500D9454624B1002E0E
:107C300001DB780700D5641EB80702D5B8F1000F44
:107C40000AD0F80708D13CB1A54205D220215846F8
:107C5000641EFFF739FDF6E7002E02DA4E462D21AD
:107C600002E0780703D52B215846FFF72DFD07F0DA
:107C7000030002280BD1B8F1000F08D13CB1A54296
:107C800005D230215846641EFFF71EFDF6E7CDE908
:107C90000047434652463146584602F0EDFFBDE8E4
:107CA000FC9F000070B50D46044600684FF48871D3
:107CB00001F0BEFC4FF49071206801F0B9FC4FF464
:107CC0009271206801F0B4FC4FF4A271206801F0B9
:107CD000AFFC20681249C0F8041320686907000B44
:107CE00040B2090E002806DA00F00F0000F1E02093
:107CF00080F8141D03E000F1E02080F800142068F3
:107D00000121000B40B200F01F02914040098000A9
:107D100000F1E020C0F88012C0F8001170BD000032
:107D200010030200024600201268930702D0530796
:107D300002D47047500714D502F00300012802D086
:107D400002280CD105E0C2F383100B68801C184494
:107D500004E00223086803EB9252104408600120FB
:107D60007047086800EB9253C2F38910401CEEE79D
:107D700010B509892AB1D088491C814218D1002048
:107D800010BD90F8C62202EB8204C4EB821200EB15
:107D9000420212899142F2D0491C198090F8C61211
:107DA00001EB8102C2EB811100EB4100008902E08E
:107DB0001980D088401E5880012010BD2DE9F04167
:107DC000054608781B4E03270C46012811D00228CF
:107DD0002DD13088227907EB004017A101F004F87B
:107DE000207900284FF002001DD0BDE8F041FFF7D8
:107DF000EFBB6188221D1A48FFF7F4F930886288CA
:107E000007EB004017A100F0EFFFFEF767FE08B197
:107E1000FEF7B4FE2846FFF7B9F9002807D0BDE801
:107E2000F041FEF7ABBEBDE8F041FFF7C9BBBDE8CE
:107E3000F081000094210020427574746F6E2073ED
:107E400074617465206368616E676564206F6E207D
:107E50007065657220746F20307825782E000000E0
:107E6000A42100204C454420427574746F6E207329
:107E700065727669636520646973636F76657265A0
:107E800064206F6E20636F6E6E5F68616E646C65F8
:107E900020307825782E00001721018041800021B4
:107EA000017141711B218171C17170472DE9F0474A
:107EB000394E002780463D46DFF8E090D6F804A012
:107EC00057E003D00446D0F81C8035E099F8002034
:107ED00002EB4201521CD2B289F8002009EBC10129
:107EE00099F80230091D9A4201D189F8005048687A
:107EF0000A780446012A12D0022A02D0032A3BD172
:107F000008E002F07DFC00B10127257434E005741F
:107F1000C06900E070680028F9D170602CE0207C16
:107F200050BB88686060C868A0600869E060486904
:107F3000A061F07800B165606268B168184B501AB2
:107F400020F07F40984202D2A168084406E0881AD7
:107F5000A16820F07F40814202D9081A206000E029
:107F6000256065600120A56020742046E56102F06F
:107F700029FCB8F10000A4D199F8001099F801008B
:107F80008142A3D117B97168514502D00120BDE8E3
:107F9000F0870020FBE70000A8200020A827002091
:107FA000FFFF7F002DE9FF410026234800F055F92F
:107FB0002148001F074600F050F9204C60680090EF
:107FC000A56800E000986946284004EB80000C306A
:107FD000FFF7A8FE0028F5D101AA009901EA0503E0
:107FE00004EB8303491CDB6842F82030401C0091FD
:107FF0000228F2D3019800F0030001280BD00228D8
:1080000010D10198032101EB90500099BDF80A604E
:1080100001EB900005E00198BDF80A60C0F3831001
:1080200008440090384600F015F908B100986060E7
:1080300004B03046BDE8F081842E00206C2A002078
:1080400008B54FF40041002000F034FF08B1FEF7FE
:1080500095FD00F0A7FDFEF79DFD08B1FEF78EFD32
:108060000120FFF783FA01F043F808B1FEF786FD1F
:1080700001F0EEF908B1FEF781FD0020009069469D
:10808000012001F075F808B1FEF778FD684601F0AF
:10809000F1F808B1FEF772FD00211A4800F066F908
:1080A00008B1FEF76BFD1848FEF7C2FE08B1FEF7F7
:1080B00065FD16480090134869463438FFF79EF86E
:1080C00008B1FEF75BFD124800900E48694624385F
:1080D000FFF778F908B1FEF751FD0E48032100883B
:1080E00001EB00400CA100F07BFE02F01BF9002028
:1080F000FFF76EFA00F064FD0028FBD101F00CF8E8
:10810000F8E70000D821002081790200BD7D02003F
:10811000A9A50200942100205468696E67793A3558
:108120003220746F206E5246353220444B206578E1
:10813000616D706C6520737461727465642E0000EB
:108140002DE9F047C7880446181D16468946B0FB3E
:10815000F7F1B0FBF7F207FB12009A193A44D21C70
:10816000B2FBF7F2DDF820A001E02468491E0029E7
:10817000FBD13D1A8846B54216D818E0BAF1000F77
:1081800005D0211809EB08002A46091D04E0204407
:1081900009EB08012A46001DFEF728F90020246893
:1081A000761BA844B74201D9354600E03D46002E73
:1081B000E4D1BDE8F087000030B5024659B100F0C7
:1081C000A5FE0021074C09E004EB810315685B88DC
:1081D000AB4202D11160002030BD491C8142F3D373
:1081E000052030BD5C21002010B50A8849888A42EC
:1081F00003D1FEF751F8012010BD002010BD70B56D
:108200000C460546FEF72BF8002802D06188286846
:10821000084470BD01F01F0301229A40D24349096E
:1082200000EB8100114600F021B84A0950F8220005
:1082300001F01F0201219140084000D00120704749
:1082400001F01F0301229A40490900EB8100114609
:1082500000F01CB8002100F00FB8012100F016B8A2
:1082600008B56A46FEF76DF8009808BD08B56A467D
:10827000FEF74DF8009808BD08B56A46FEF747F8C6
:1082800008BD08B56A46FEF729F808BD08B56A4674
:10829000FEF730F8009808BD08B56A46FEF75EF8AC
:1082A000009808BD38B5044600258DF80050684692
:1082B000FEF79AFC21686268086890420ED9401E59
:1082C00008600178A38AE26801FB0325227A21680D
:1082D000101AC0B20A79824200D208719DF80000DB
:1082E000FEF7A6FC284638BD38B5054600208DF8B7
:1082F00000000C466846FEF777FCE868A98A201A59
:10830000B0FBF1F12A681068431C136001709DF8FE
:108310000000FEF78DFC38BD10B530B1017A42681F
:108320000368891AC9B21A6006E00E2010BD0368FE
:108330001A68541C1C601170491EC9B2F7D200683B
:1083400000210171084610BDC20800F0070301209A
:10835000895C98400840704710B5C20800F00703D8
:10836000885C01249C402043885410BD10B560B146
:108370000161172120F8021B20F8021B1B2100F8C5
:10838000021BFFF789FD002010BD0E2010BD00006C
:10839000F0B5858893B00C46002D39D101880026B0
:1083A0003E4F24293BD006DC102909D011290CD0DE
:1083B000232958D14FE03A290BD0552953D129E030
:1083C0000146204601F09AFC4DE0A01DFFF764FD38
:1083D00049E02246408934F8061F814200D8084609
:1083E0006080172800D217206080106970B1607912
:1083F00060B1D7E90001CDE90301ADF80E50608806
:10840000ADF81000136903A91046984766712671EC
:1084100013B0F0BD0146204601F038FD23E0011DF8
:108420002C2206A8FDF7E2FFBDF81800BDF81C20BD
:1084300004EBC0014A732269AAB1D7E90423CDE94C
:108440000423ADF81200487B8DF814002269204601
:1084500004A9904707E0017A207B884200D20146B8
:108460002846FFF72FFAA07A0028D1D0E1882846C5
:10847000A5DF012570B11128CAD001F0B9F8024674
:10848000074808A1008813B005EB0040BDE8F040A4
:1084900000F0AABCA672E572BAE70000D0AD0200F7
:1084A0006021002073645F626C655F676174746350
:1084B0005F65786368616E67655F6D74755F72652F
:1084C000717565737428292072657475726E6564A0
:1084D0002025732E0000000000F180400068002875
:1084E00000D00120704708B500F1804000210160F4
:1084F0000068009008BD000070B50B4C207808B1F2
:1085000085250FE00020A06060602061E0600748E2
:1085100001F0AAF8054600F0F5FF08B901F08EF861
:1085200001202070284670BDE8260020BD7702009B
:1085300038B500258DF800506846FEF755FB074C0E
:10854000E068401EE060E06810B901F09DF8A57099
:108550009DF80000FEF76CFB38BD0000E826002007
:10856000F0B505460478154889B0164640F8242031
:10857000124A0869121DA2F1080742F82400487F38
:10858000385520226846FDF731FF04942878385C7E
:1085900048B10EB10A4A00E000226946281D01F0E8
:1085A0003FFA09B0F0BD0EB1064A00E0002269466C
:1085B00005F10C0001F006F9F3E70000702000203F
:1085C00055AB0200A1A902000FB408B50399002918
:1085D00004D004AA00926A4600F00FF801B05DF8DA
:1085E00014FB10B582680446002A05D0D4E90403C0
:1085F000216898470020A06010BD2DE9FC479146F6
:108600000C00804676D014F8011B39B125290ED014
:108610004046FFF759F820780028F4D198F80C006C
:10862000002867D04046BDE8FC47FFF7DABF0020CE
:10863000012221782B291BD02D2902D0302908D1E5
:1086400002E040F0010001E040F00200641C002A5A
:10865000EFD100252A290ED02178A1F130020A2A73
:1086600011D205EB850201EB4205641C303DF1E7B8
:1086700040F00400EAE7D9F800100B1DC9F80030FB
:108680000968641C0D44217800232E290BD114F8AD
:10869000011FA1F130020A2A05D203EB830201EB8C
:1086A0004203303BF3E76C290DD068290BD06929D0
:1086B00021D00BDC252918D0582931D063290ED0C0
:1086C000642915D117E014F8011FECE7702969D06F
:1086D000732932D075291BD0782909D120E0D9F827
:1086E0000000011DC9F8001001784046FEF7ECFFBC
:1086F000641C90E76CE0D9F800100A1DC9F800204E
:108700000968CDE900500A224046FFF777FAEFE703
:10871000D9F800100A1DC9F8002009680A2206E0ED
:10872000D9F800100A1DC9F8002009681022CDE907
:108730000050404602F0A0FADAE7D9F8001000270E
:108740000A1DC9F800200E68C00705D112E0404696
:10875000761C7F1CFEF7B8FF31780029F7D104E0C2
:10876000202140466D1EFEF7AFFFBD42C0D9002D4F
:10877000F6D1BDE74EB13046FDF75CFE074604E09A
:10878000202140466D1EFEF79FFFBD4206D9002DF9
:10879000F6D103E04046761CFEF796FF31780029BB
:1087A000F8D1A5E7D9F80000011DC9F80010056847
:1087B00030214046FEF788FF78214046FEF784FFCF
:1087C00008200021CDE90001034610222946B0E728
:1087D000BDE8FC87044801214174007A08B10020FB
:1087E00070470120704700004C290020012801D06B
:1087F000032808D10449002201284A7400D000202F
:10880000087401F0D5BC70474C29002070B50246B1
:10881000022801D0032A45D1234C207A002841D0D8
:10882000012833D0022831D120480023022A0068D1
:1088300002D0032A2AD11BE0E360017911B101299A
:1088400024D10DE0D0E90565711B4FF48056B1428B
:1088500000D33146294481614569A9420ED015E013
:108860000169491C0161426991420FD1237213E0F1
:10887000E168491CE160082908D9E3602372022AF3
:108880000AD00D21FFF790F901F088FC607C28B137
:10889000BDE8704000F03CBE0021F3E7BDE8704049
:1088A00001F086BC70BD00004C290020D0200020C3
:1088B00070B541EA4201DDE904564FF0A04441EAB7
:1088C000830141EA052104EB800041EA0641C0F83A
:1088D000001770BD70B541EA4201DDE904564FF062
:1088E000A04441EA830141EA052104EB800041EA0A
:1088F0000641C0F8001770BD70B541EA4201DDE9DC
:1089000004564FF0A04441EA830141EA052104EBFB
:10891000800041EA0641C0F8001770BD1CB5002177
:1089200000910B4601220191FFF7D4FF1CBD1CB53D
:10893000002100910B4601220191FFF7DDFF1CBDD4
:108940001CB500220B46009211460192FFF7C2FFB0
:108950001CBD1CB500220B46009211460192FFF788
:10896000CBFF1CBD1CB5002100910B4601220191DB
:108970001146FFF7AFFF1CBD1CB5002100910B464F
:10898000012201911146FFF7B7FF1CBD4FF0A04235
:1089900002EB8000D0F8002722F44032C0F8002714
:1089A000D0F8002742EA0141C0F8001770470122C1
:1089B0004FF0A043824011B1C3F808257047C3F8B7
:1089C0000C25704718B5084B6C4601441B68009392
:1089D00006E000BF54F82030D3F81035401C08C220
:1089E0008142F7D818BD000008AE0200034908B55F
:1089F0000844002101600068009008BD006000404C
:108A000002494058012800D0002070470060004013
:108A100030B5124B01460020D3F81044224609E03D
:108A2000157A854205D1401C0A28F7DB4FF0FF304C
:108A300030BD5268002AF3D1421CF9D00872D3F835
:108A400010242AB152684A60D3F81024516030BD16
:108A50000022C3F810144A6030BD00006C2A0020C8
:108A6000F0B595B01C4615460F4608461A9E00F014
:108A70001DFB182109A8FDF7D2FC0E96CDE909547B
:108A80000023082203A9384600F025FB059806902C
:108A9000BDF81000ADF81C00BDF81200ADF81E00C6
:108AA00000208DF821000398082600F0030001281B
:108AB00002D0022818D032E003983346850AC0F36A
:108AC000C2008DF8200003980FA9C0F38314A20000
:108AD000384600F000FB09A8009006AB22460FA91B
:108AE000284600F03FFA1AE00398840DC0F3C20054
:108AF0008DF82000082C01D2254600E008253346D9
:108B00002A460FA9384600F0E6FA2E44641B09AB4A
:108B100006AA29460FA800F077F9002CEAD13846BA
:108B200000F0CAFA15B0F0BD7047012001F056BF41
:108B3000084810B50178084A515C19B1001D00F0D1
:108B4000FBFF02E00C3000F009FFBDE81040002000
:108B500001F044BFE42000206C20002008B5034A47
:108B600000924023024AFFF77BFF08BD3DA40200AC
:108B70006C2900200A4A012902EBC00007D0022913
:108B800007D0032907D0042907D00020704702200E
:108B900070470420704700797047407970470000A3
:108BA00064B8020010B5FFF7C0FF04210348FFF7C7
:108BB0002FFF02490120487210BD0000F82000205C
:108BC0002DE9F04F8DB0FEF78FFD18B100200DB0EC
:108BD000BDE8F08F7A4C4FF0000BC4F818B4BFF327
:108BE0004F8F60680290A568D846284004EB80004B
:108BF00008E021680298814201D86160E6E72840D8
:108C000004EB80000C3002A9FFF78CF80028F0D1AB
:108C100005AA029901EA050304EB8303491CDB68FA
:108C200042F82030401C02910228F2D3059800F04F
:108C30000300022802D001284ED0A9E00598502256
:108C4000810D8946B2EB905F00D850210E4666F345
:108C50009F50059008315B4800F0DFF9070079D09C
:108C600000F024FA4346082205A9384600F039FAF4
:108C7000029908F1080A2940681A8000001D8642FE
:108C800023D94F4D0C3530B1C2B204EB8101301AFB
:108C900090460C3104E02946F2B200259046284661
:108CA000C6B25346384600F01CFA0AEB08032DB151
:108CB000324629464FEA070000F013FA029909F1FB
:108CC000030001EB900002903BE004EB810153466E
:108CD000324638460C31EFE70598C0F3831006287A
:108CE00000D30620059960F38911C1F38310801C1D
:108CF00005918100334800F090F9070048D000F05A
:108D0000D5F94346082205A9384600F0EAF908F1EA
:108D1000080800260FE00298434600EA0501401CBF
:108D200004EB81010290042238460C3100F0D9F99D
:108D300008F10408761C0598C0F38310B042EAD805
:108D400047B1D4F81054D4F8180468B1384600F08C
:108D5000B3F92FE01CE0687A012804D12A6828467C
:108D60003946126890476D68002DF4D1384600F0FE
:108D7000A3F98DF800B06846FDF736FFD4F8180463
:108D800008B9029860609DF80000FDF751FF11E0FE
:108D9000D4F8104404E02168204689688847646854
:108DA000002CF8D108480221008801EB004007A1FF
:108DB00000F016F8FEF798FC80F0010007E70000CD
:108DC0006C2A0020F4B80200942100204261636BF9
:108DD000656E647320666C757368656400000000DE
:108DE00000231A4601F09ABB08B5012300926A4697
:108DF00001F094FB08BD1CB5CDE9002302236A46AF
:108E000001F08CFB1CBD00002DE9F0470E468046AA
:108E10001C46924608293ED894F80C9000202073F6
:108E20001946104601F062F90025B54206D218F83D
:108E300005201AA12046FFF7C7FB03E019A1204631
:108E4000FFF7C2FB6D1C082DEFD317A12046FFF7DB
:108E5000BBFB0025B54210D218F80570FDF7C2FA29
:108E60000068C05D10F03E0F01D03A4600E02E22AF
:108E70000EA12046FFF7A8FB03E00DA12046FFF757
:108E8000A3FB6D1C082DE5D301222146504601F0BD
:108E90000FF984F80C90BDE8F087000020253032EF
:108EA00078000000202020007C00000025630000E6
:108EB00020000000104810B5FF21816000210160F2
:108EC0004160C0F81814C0F8141480F820140B483E
:108ED00000F0F0F800280DD109480A490A4B401A61
:108EE000C108002003E000BF23F82000401C884296
:108EF000FAD3002010BD00006C2A0020F4B8020054
:108F0000F4B8020064B802005C2100200248034962
:108F1000401AC00870470000F4B8020064B80200AC
:108F200013B56846FFF748F908B100201CBD024898
:108F3000009950F831001CBD64B8020070B50848B3
:108F40000125D0F8104480F8205405E065722168AE
:108F50002046496888476468002CF7D170BD00003E
:108F60006C2A00202DE9FF4781460C9D00200C460D
:108F70002F7B2873984616462946184601F0B6F806
:108F8000072E42D2DFE806F004090F161F2A36002A
:108F900049462846FFF718FB37E04946284622682D
:108FA000FFF712FB31E0D4E9002349462846FFF7DA
:108FB0000BFB2AE0A0680090D4E90023494628462C
:108FC000FFF702FB21E0D4E90201CDE90001D4E979
:108FD000002349462846FFF7F7FA16E004F1080097
:108FE00007C88DE80700D4E9002349462846FFF763
:108FF000EBFA0AE004F108000FC88DE80F00D4E98D
:10900000002349462846FFF7DFFA0022294640465A
:1090100001F04EF82F73BDE8FF872DE9F041858AF6
:1090200080462D1F4819C01CB0FBF5F0C6B2404663
:10903000FFF738F9041E19D000202071012060715B
:10904000E58000272546761EC4F800800BE04046E8
:10905000FFF728F960B16179491C61712860054604
:109060007F1CC0F80080B742F1D32046BDE8F081F4
:10907000204600F002F80020F8E72DE9F04145799C
:1090800001466B1E002201E00968521C9A42FBD384
:109090000F680146002605E038460C68FFF724F902
:1090A0002146761CAE42F7D3BDE8F0810121001DB8
:1090B000FFF7D6B8FFF730B910B504460121001DFF
:1090C000FFF7EAF810F0FF0F04D12046BDE810408A
:1090D000FFF7D3BF10BD38B501240094FFF730F877
:1090E00038BD38B500240094FFF72AF838BD0000D9
:1090F000064910B500204870091D0860BFF35F8F56
:109100000349044800F030FA002010BDD8200020A8
:1091100060AE02006029002008B500208DF8000034
:109120006846FDF761FDF1EE100A20F09F00E1EEC8
:10913000100ABFF35F8F08494020C1F880029DF8F4
:109140000000FDF775FD00F0DDF908B141DF08BD55
:1091500020BF40BF20BF08BD04E000E020B10349AC
:1091600009680160002070470E2070474CB0020073
:10917000FEB502460E460846FFF7F0FF00286CD108
:10918000002400940194012506208DF80020ADF8FC
:10919000040002948DF8025069462020326869DF8D
:1091A0002E4F48B100F024FA3988024605EB0143FE
:1091B0002B491846FFF718FE00948DF801408DF8F2
:1091C0000250019402948DF80350694640203268A1
:1091D00069DF40B100F00CFA02463888214905EBFE
:1091E0000040FFF701FE00940A208DF80000019472
:1091F000029469460120326869DF40B100F0F8F955
:1092000002463888184905EB0040FFF7EDFDF820CD
:109210000090019402946946A120326869DF40B150
:1092200000F0E6F902463888104905EB0040FFF7E8
:10923000DBFD0094019402948DF800406946A02063
:10924000326869DF40B100F0D3F902463888084936
:1092500005EB0040FFF7C8FD0020FEBD9C2100206B
:10926000ECB6020034B702004CB6020098B6020019
:10927000F8B502002DE9F0410446D0F8008060DF27
:109280002168194D074641451CD92888022606EB5E
:10929000004016A1FFF7A4FD2888424606EB0040D7
:1092A0001EA12368FFF7A7FDF006D0F80C01216886
:1092B000800200F10050421A288825A106EB0040E8
:1092C000FFF792FD012467B1384600F091F902469C
:1092D00028882AA104EB0040FFF786FD3846BDE848
:1092E000F0812E480470F9E79C210020496E7375C7
:1092F0006666696369656E742052414D20616C6CCD
:109300006F636174656420666F72207468652053B2
:109310006F66744465766963652E00004368616E0C
:109320006765207468652052414D207374617274C2
:10933000206C6F636174696F6E2066726F6D203090
:1093400078257820746F20307825782E0000000072
:109350004D6178696D756D2052414D2073697A6554
:1093600020666F72206170706C69636174696F6EE2
:1093700020697320307825782E00000073645F62C6
:109380006C655F656E61626C652829207265747515
:10939000726E65642025732E0000000057210020A6
:1093A00030B5144891B00078002820D05FF0340523
:1093B000ADF8405010A903A861DF30B1052816D0E0
:1093C00011B0BDE83040FDF7D9BB03AC0A4968468F
:1093D00000F0CAF807E000BFD0E90021204690471E
:1093E000684600F0D8F802980028E1D0F4E711B000
:1093F00030BD00005721002050B00200F8B5134CDA
:109400002078C0B10120A07000F0EAFF112814D02C
:10941000022000F0FDFF00258DF800506846FDF7A2
:10942000E3FB11DF064625709DF80000FDF700FC08
:109430002EB13046F8BD0820F8BD0020F8BDA5705B
:1094400001F028F8032000F0E3FFF6E754210020A4
:109450007CB5204C207808B108207CBD0120A0708C
:10946000002000F0BDFF112819D0002000F0D0FF2F
:1094700019480026006801908DF800606846FDF7E5
:10948000B3FB164901A810DF05000AD000202070A8
:109490009DF80000FDF7CCFB2DB128467CBD0020D7
:1094A0007CBD0120F3E7A67066700721162000F04E
:1094B0004DFF08B1FDF762FB0721152000F046FFC4
:1094C00008B1FDF75BFB01F001F8012000F0A0FFFF
:1094D000E5E7000054210020E4AF0200016B020028
:1094E0000EB50749684600F03FF805E0D0E90010E6
:1094F0008847684600F04FF802980028F6D10EBD64
:1095000000B002000148007870470000542100209C
:109510000548817819B1007818B1FFF76FBF0820AE
:109520007047FFF795BF0000542100201FB5684623
:109530004BDF30B1052814D004B0BDE81040FDF772
:109540001DBB084901A800F00FF806E0D0E9002192
:109550000098904701A800F01EF803980028E6D074
:10956000F4E71FBD6CB00200016009684160AFF311
:10957000008010B5D0E900215368994201D1002143
:1095800004E0D1E90034A34202D01946816010BD45
:1095900008314160F0E7816800290BD002689268C9
:1095A0000A44826041684B689A4203D108314160A5
:1095B000FFF7DFBF704700000C4A10B502F5947347
:1095C0000EE0991AC91001EBD171491002EBC101EB
:1095D0000C68844201D90B4602E005D201F1080271
:1095E0009A42EED3002010BD486810BD80AE020044
:1095F00000B5FFF7E1FF002800D1014800BD0000E1
:109600006CAE02004058002800D00120704708B519
:10961000002242504058009008BDD0F80403084092
:1096200000D0012070474058002800D0012070472A
:1096300008B5002242504058009008BD0848006814
:10964000012110F0010F08D14FF0E020E02280F856
:109650000024C0F88012C0F8001102480160704771
:1096600000E100E0180500400649024600200B79A1
:109670000BB1852070470A6001220A7100224A71ED
:109680007047000078200020044901200860044849
:109690000168C1F300410029FAD170470C00004075
:1096A00018040040002802D0014980010847704793
:1096B00021AE02002DE9F0418846054600F0E0FCAD
:1096C000234E002828461AD0FEF73AF8304490F886
:1096D00048008009032802D001280ED007E04FF08F
:1096E000A040D0F81005E84010F0010F05D003218C
:1096F0002846BDE8F041FFF749B90221F8E700F03C
:10970000CBFC002822D02846FEF71AF804464FF476
:10971000807000EB84000F4F81B207EB8400D0F81B
:10972000102542F00102C0F810250846FFF75EF947
:10973000B8F1000F0AD02846FEF702F856F82000CC
:10974000002803D00120A040C7F80403BDE8F08141
:10975000FC260020006000400121B1EB507F01D1C8
:10976000012070470020704738B50D4600F00AFD13
:10977000040014D000208DF800006846FDF734FA8C
:10978000207928B19DF80000FDF752FA112038BD6C
:109790000120256020719DF80000FDF749FA0020A6
:1097A00038BD10B500F0EEFC002802D000210160A9
:1097B000017110BD0149024801F038B95827002055
:1097C000002000402DE9F0410546007916460F467D
:1097D00000EB40012D4A01EBC00102EB810494F83B
:1097E0002A1011B10820BDE8F081294951F8201054
:1097F0002868FFF7B9FF08B11120F4E73946284679
:10980000FDF730FA66603869206030004FF00106DD
:109810002FD03F7F4FF48E712868FFF7F8FE4FF48A
:10982000A2712868FFF7F3FE28681A49C0F80413EC
:1098300028684FEA4711000B40B2002806DA00F012
:109840000F0000F1E02080F8141D03E000F1E0209B
:1098500080F800142868000B40B200F01F0206FADE
:1098600002F14009800000F1E020C0F88012C0F849
:10987000001128680421C0F800150020A061E061F3
:1098800084F8290044F8140FA675ACE75827002087
:109890000CAE0200800002002DE9F0470546007979
:1098A0000B4600EB400101EBC000234901EB8004B3
:1098B000284600F043F810B11120BDE8F0874FF0C2
:1098C0000008C4F82080A360626184F828804FF407
:1098D0008E76474631462868FFF799FE28684FF094
:1098E0000109C0F808902146286801F03BF860683B
:1098F00000BBD5F800A00EE094F8280008B10F27AF
:1099000016E031465046FFF77DFE0028F4D0214690
:10991000504601F027F8216A60698142F1D331464F
:109920002868FFF76FFE0028F9D02868C0F80C906F
:10993000C4F814803846C0E758270020007900EBAF
:10994000400101EBC000044901EB800040690028A0
:1099500000D0012070470000582700202DE9F04773
:10996000044600794FF0000900EB400101EBC00014
:10997000254901EB80072068C0F80095786880B120
:1099800020682249C0F8081320680121000B40B26A
:1099900000F01F0291404009800000F1E020C0F873
:1099A00080112068D0F80C25D0F81485D0F808650F
:1099B000D0F810554FF0FF31C0F81415C0F80C1551
:1099C0002068C0F80815C0F81015501C02D01046C9
:1099D000FEF7A4FFB8F1FF3F02D04046FEF79EFF1E
:1099E000681C02D02846FEF799FF701C02D0304652
:1099F000FEF794FF2068FFF7D4FE87F82A90C7F897
:109A00000490BDE8F087000058270020840202007F
:109A10000149024801F0B6B8842700200020004028
:109A20002DE9F0410546164600790F46154A00EB30
:109A3000C00102EB810494F8201011B10820BDE8A8
:109A4000F081114951F820102868FFF78DFE08B108
:109A50001120F4E739462846FDF748F96660386971
:109A600020601EB1397F2846FEF71CF928680821BE
:109A7000C0F800150020A061E0610121606184F858
:109A80002010DCE78427002010AE02002DE9F0470B
:109A900004460E460079204900EBC00001EB80052A
:109AA00017463046FFF758FE30B1204600F036F832
:109AB00020B11120BDE8F0871020FBE76F61AE6098
:109AC0004FF49076002731462068FFF7B1FD4FF440
:109AD000AC7841462068FFF7ABFD2068AA68696949
:109AE000C0F84425C0F848152068012181606868E5
:109AF00078B9B14649462068FFF795FD06464146CC
:109B00002068FFF790FD0643F4D000B10F27002036
:109B100068613846CEE700008427002000790549B7
:109B200000EBC00001EB80004069002800D001205C
:109B300070470000842700202DE9F0470446007993
:109B4000274900EBC00001EB800720684FF00009B7
:109B5000C0F80095786880B120682249C0F80813E1
:109B600020680121000B40B200F01F029140400923
:109B7000800000F1E020C0F880112068D0F80C25AA
:109B8000D0F81485D0F80865D0F810554FF0FF31A3
:109B9000C0F80C15C0F814152068C0F80815C0F8F6
:109BA0001015501C02D01046FEF7C1FEB8F1FF3F61
:109BB00002D04046FEF7BBFE681C02D02846FEF7E6
:109BC000B6FE701C02D03046FEF7B1FE2068FFF7EB
:109BD000E8FD87F82090C7F80490BDE8F087000002
:109BE00084270020100302002DE9F84F05460C469B
:109BF0000888B5F8CA12884259D195F8C602DFF82C
:109C0000F8A000EB8001C1EB801005EB40016088FB
:109C10004FF003094FF00008F0BBE6880879A21D59
:109C2000F3B250FA86F6062E01D8034400E006236C
:109C30000B7100261CE000BF00EBC00306EB86079B
:109C400002EB470701EB4303D7F802C0C3F80AC091
:109C5000D7F806C0C3F80EC07F895F82A3F81480CE
:109C6000A3F81680A3F81880401CA3F81A80761C6D
:109C70000B798342E0D895F8C62200EBC00002EBD6
:109C80008203C3EB821205EB420231F81000128905
:109C900090420ED2087900E00BE0062809D085F842
:109CA000C50221882846FDF753FD01000AD1BDE811
:109CB000F88F85F8C582228869462846FDF770FE30
:109CC00001000BD085F8C78222882846FDF7F6FEF2
:109CD0008AF800902188AAF80210E8E79DF80000B1
:109CE0000028E4D0228801212846FDF79FFE218824
:109CF000284600F087F9DAE7A822002070B58D88A1
:109D0000027900EBC5042273C97BA41D012902D08E
:109D1000022904D101E0008800E0408820802188E9
:109D2000608881420FD92846A5DF0126A0B11128FD
:109D300014D0FFF75DFC02460A480BA1008806EB31
:109D40000040FFF751F8A179E079814208D928460F
:109D5000BDE87040FDF7B6BD6671F4E72671F2E725
:109D600070BD00006021002073645F626C655F67F6
:109D7000617474635F65786368616E67655F6D7455
:109D8000755F7265717565737428292072657475C5
:109D9000726E65642025732E00000000F8B505463C
:109DA0000C460888B5F8CA1288425DD195F8C602FB
:109DB000A61D00EB8001C1EB801005EB400395F878
:109DC000C502618800EBC00003EB40000A3039B3E4
:109DD00029E000BF01EB410206EB42029788B7F58C
:109DE000245F0CD06FF4245C17EB0C070AD0012F12
:109DF00002D0072F0BD108E05288428107E0528839
:109E0000828104E05288C28101E052880282428944
:109E10002AB182891AB1C2890AB1028A1AB9491CC7
:109E200032888A42D6D800268DF8006095F8C5029F
:109E30001979401C884203D101208DF8000018E0F8
:109E400085F8C502228869462846FDF7A9FD01006C
:109E50000BD085F8C76222882846FDF72FFE0A48F6
:109E60000321017021884180F8BD9DF80000002881
:109E7000FAD0228801212846FDF7D8FD21882846FE
:109E800000F0C0F8F8BD0000A82200207CB506460E
:109E90008D88C88806EBC504A41D172800D217209A
:109EA0002188814200D808466080002020712188E6
:109EB0002846B5DF50B1FFF79BFB02460E48012153
:109EC000008801EB00400DA1FEF78EFF60790028AD
:109ED00010D1306900280DD01449D1E90201CDE933
:109EE0000001ADF802506088ADF80400326969469F
:109EF000304690477CBD00006021002073645F62A3
:109F00006C655F67617474735F65786368616E67C1
:109F1000655F6D74755F7265706C79282920726554
:109F20007475726E65642025732E0000D0AD02003A
:109F300000B502888B8887B09A422BD1ADF80220F9
:109F40000A7C00EE102AB8EE400A8DED010A49891C
:109F5000C289914201D1022117E0028A914201D1C6
:109F6000032112E0428A914201D104210DE0828A4C
:109F7000914201D1052108E0C28A914201D1062116
:109F800003E0028B914205D107218DF80010C269D0
:109F90006946904707B000BD70B505460C4690F87D
:109FA000C602228800EB8001C1EB801005EB400166
:109FB000B5F8CA02824222D1608848B10021284601
:109FC000FDF734FD21882846BDE8704000F01AB83E
:109FD000A2680A60E068C1F8060021882846FDF7FB
:109FE000B7FB01000BD0002085F8C7022288284665
:109FF000FDF764FD0248032101702188418070BD96
:10A00000A82200202DE9F041044690F8C9020E462E
:10A01000401C1949C0B284F8C902C9680327174D0A
:10A020004FF0000E884224D284F8C5E294F8C602AC
:10A03000401CC0B200EB8001C1EB801104EB410277
:10A0400084F8C602A5F1180101EB80000121006827
:10A05000106082F804E030469BDF010007D084F8EE
:10A06000C7E232462046FDF729FD2F706E80BDE81D
:10A07000F08184F8C7E2F8E74C200020A8220020F5
:10A080000449084490F93000082801DB012070479A
:10A0900000207047FC2600200449084490F9300055
:10A0A000082801D20120704700207047FC260020BC
:10A0B00010B50C46017A052908D0407A38B1084815
:10A0C00008A102682046FEF77FFA00E01AB106A157
:10A0D0002046FEF779FA2046BDE81040FEF781BA27
:10A0E00030210020257300000D0A000038B5C38818
:10A0F0000D46044633B114A0009015A216A12846BF
:10A10000FEF762FA217A05291CD0607A48B1A0884E
:10A11000FEF730FD164951F8202016A12846FEF71B
:10A1200053FAA0880021FEF7FBFE03461049207A6F
:10A13000143951F8202001B02846BDE830400EA166
:10A14000FEF742BA38BD00001B5B306D0000000016
:10A150001B5B313B33316D0025734C6F677320649B
:10A16000726F70706564202825642925730D0A00BC
:10A1700030210020257300003C25733E2025733AD2
:10A18000200000000349884201D1034870470020A5
:10A190007047000000200040802000200348024952
:10A1A0000068FEF721B80000D420002038AE02007D
:10A1B0002DE9F041234C0025234E207A012730B9A8
:10A1C0002248311D0068FEF71AF8306038B10220CD
:10A1D00020723168087928B101281ED116E0656027
:10A1E000BDE8F081D1E90503C01A4FF480529042D6
:10A1F00000D31046B7EB900F01D2820800E0012295
:10A200000869C9681844194429DF03E0D1E903014A
:10A21000084428DF58B1112812D003213068FDF717
:10A22000C3FC25726560BDE8F041FFF7B7BF207C35
:10A230000028D5D1BDE8F04100210220FEF7E6BAA2
:10A240002772CDE74C290020D020002038AE020034
:10A2500070B50C4B00210A4ADC680DE002EB810569
:10A260008678AD78B54206D132F821500688B542DD
:10A2700001D1586870BD491CA142EFD3002070BDC8
:10A28000902200204C20002070B5012670044FF071
:10A29000E0210025C1F88001084C4010C4F84803B3
:10A2A000C4F8080366602F20FFF7FCF9A660044C91
:10A2B0002F20A560FFF7F6F9A57070BD00100140D2
:10A2C000A820002070B5054688690C4600284FF488
:10A2D000847128460AD0FFF79AF9D5F81805626A02
:10A2E000E1688854606A401C606270BDFFF78FF9B6
:10A2F000D5F8180570BD1FB501238DF80030CDE9E4
:10A300000121D0E90012684690471FBD1FB5012307
:10A310008DF800308DF808100192D0E900126846DF
:10A3200090471FBD10B58BDF064907488ADF08B18B
:10A33000FCF724FC0120FDF743F9BDE810400020A4
:10A34000FDF746B9701D00203CAD020070B50D460A
:10A350000446FCF78BFB70B12846FCF799FB68B10B
:10A360006807000E002C0CDA04F00F0101F1E02167
:10A3700081F8140D09E042F2010070BD42F20200C2
:10A3800070BD04F1E02484F80004002070BD0000DA
:10A3900038B50021012548B101280CD0032809D186
:10A3A000FFF74CF9BDE83840FEF7C2B84FF0E020A7
:10A3B000C0F8805138BD8DF800106846FCF714FCD9
:10A3C000064C207808B9FEF797F8E068401CE0607A
:10A3D000A5709DF80000FCF72BFC38BDE826002096
:10A3E0003EB5044609496846FFF7BEF808E000BFDD
:10A3F000D0E900212046904730B16846FFF7CBF8FE
:10A4000002980028F4D13EBD11203EBDE8AF020005
:10A410003EB5044608496846FFF7A6F807E000BFC6
:10A42000D0E90021204690476846FFF7B4F802982B
:10A430000028F5D13EBD0000F4AF020070B50D4C10
:10A440000020D2B22070201D0B4D0378EB5C1BB1B5
:10A45000001DFFF71BFB02E00C30FFF71DFA08B1EF
:10A46000FCF78CFB6078002802D021780029FAD014
:10A4700070BD0000E02000206C200020002805D1E5
:10A480000349012048700020FDF784B9704700009F
:10A49000E826002010B51620FCF7E8FA48B10A4873
:10A4A00082684FF4800152B1016821F4800101609B
:10A4B00010BDBDE8104042F20100FCF75FBB4FF059
:10A4C000E020C0F8801110BDB428002010B516207F
:10A4D000FCF7CCFA80B10F4890F800044009FCF773
:10A4E000D7FA60B10C4882684FF480016AB1016804
:10A4F00041F48001016010BD42F2010001E042F22E
:10A500000200BDE81040FCF739BB4FF0E020C0F876
:10A51000001110BD16E000E0B42800202DE9F84F2E
:10A52000204D9246894606469846012269461846BD
:10A53000AF68FDF781F858B3009800210446801CED
:10A5400009E000BF00EA07035AF8212005EB830366
:10A55000401C491CDA604145F4D34FEA164AFDF726
:10A56000F9FA4AEA0041601C384005EB80003C40A3
:10A5700005EB8402C160D06866F3C50068F38910FA
:10A5800069F39F2020F00300401C20F00400D060FD
:10A5900095F8200402E000BFFEF712FB0028FBD173
:10A5A000BDE8F88F6C2A00202DE9F041384E0C46AA
:10A5B0000746097803253088082905EB004065D255
:10A5C000DFE801F064043139414951596188221DA5
:10A5D0003048FCF7D9FE3088628805EB00402EA198
:10A5E000FEF702FC3846FCF75AFF08B1FCF7C6FA42
:10A5F0003846FCF745FF08B1FCF7C0FA3846FCF7CF
:10A60000D1FE08B1FCF7BAFA3846FCF7AEFE08B145
:10A61000FCF7B4FA3846FCF799FE002836D0BDE8BE
:10A62000F041FCF7ABBA94ED010A2AA1BCEEC00AD6
:10A6300010EE102A26E094ED010A2CA1BCEEC00A0F
:10A6400010EE102A1EE094ED010A2DA1BCEEC00A06
:10A6500010EE102A16E094ED010A2EA1BCEEC00AFD
:10A6600010EE102A0EE094ED010A2EA1BCEEC00AF5
:10A6700010EE102A06E094ED010A2EA1BCEEC00AED
:10A6800010EE102ABDE8F041FEF7AEBBBDE8F08148
:10A6900094210020B42100205468696E6779204518
:10A6A0006E7669726F6E6D656E7420736572766911
:10A6B000636520646973636F7665726564206F6E8D
:10A6C00020636F6E6E5F68616E646C652030782504
:10A6D000782E0000476F742074656D706572617428
:10A6E0007572653A2025642E00000000476F7420C3
:10A6F00070726573737572653A2025642E000000D0
:10A70000476F742068756D69646974793A202564AF
:10A710002E000000476F74206761733A2025642E75
:10A7200000000000476F7420636F6C6F723A202541
:10A73000642E0000476F7420636F6E6669673A206D
:10A7400025642E002DE9F84F1D4C00256846D4E9FC
:10A7500001A6FDF709FA002738B30023009A6168C3
:10A760001CE0D1F800C00846944503D9ACEB0202C6
:10A770000A6015E0A2EB0C0263440760D0F80CC03D
:10A78000C1698146BCF1000F08D006EB030828F030
:10A790007F48C0E9018CC9F81C5005460029E0D16A
:10A7A00028466160FDF782FB03E02846FDF77EFB4B
:10A7B00010B15046FDF710F8E770BDE8F88F0000C3
:10A7C000A82000200D4B10B5596831B102680C6803
:10A7D000A24204D8A21A0A60C161586010BD0B469B
:10A7E00003E00B46C969121B21B10C689442F8D3EF
:10A7F000A41A0C600260C161D86110BDA8200020BD
:10A800002DE9F041144E77683D462C4603E0844222
:10A8100004D02546E469002CF9D11BE0D4B1A5424F
:10A820000BD1F869706040B90C49012088600021A3
:10A83000B160F0702F20FEF735FF2168E069E86114
:10A8400010B10268114401607068874202D0012093
:10A85000BDE8F0810020FBE7A820002000100140A7
:10A860002DE9F041194D6C68002C2CD018480027B8
:10A870000068A968B846401A20F07F462068B042B8
:10A880000CD82146361A0744E469087C20B181F8C7
:10A890001080886949698847002CEFD12978687849
:10A8A000814206D1401CC0B26870022801D185F8EF
:10A8B0000180064869780C3040F82170BDE8F0410D
:10A8C0001420FBF7D1BEBDE8F0810000A8200020D5
:10A8D0000415014010B50F4CD4E90010884211D086
:10A8E00000EB80020C4800EB82018B785BB130F802
:10A8F00022000831A3DF002804D12079401C00F099
:10A900000700606010BD30F8220089880022A1DFB6
:10A91000F1E700005C200020A825002010B50F4CB6
:10A92000D4E90010884211D000EB80020C4800EB03
:10A9300082018B785BB130F822000831A3DF002858
:10A9400004D12079401C00F00700606010BD30F891
:10A95000220089880022A1DFF1E7000064200020A6
:10A960004826002070B50C4605464FF48E71FEF760
:10A970004EFE216AA068415C206A401C2062C5F836
:10A980001C1570BD1FB500228DF800200291816852
:10A9900001914261D0E90012684690471FBD000056
:10A9A0001FB50A4601788DF8001041680191017ABF
:10A9B0008DF80810C0680390044850F82210001F5A
:10A9C00050F82220684690471FBD000074200020E8
:10A9D0000149012008707047E020002010B588B0C0
:10A9E000044620220E496846FBF700FD0620009031
:10A9F000C01F0190029003904FF0EB7006900CB1D5
:10AA0000084A00E0002269460748FDF7A9FD08B1A1
:10AA1000FCF7B4F80448001F447008B010BD0000F3
:10AA2000B4AF0200D1A90200E42000202DE9FF47C5
:10AA30000C4605464FF40071FEF7EFFD01274FF479
:10AA40000178002618B34FF4927949462846FEF75C
:10AA5000D9FDE0B149462846FEF7D9FDC5F808837F
:10AA600094F8290000B96F6002208DF80000D5F835
:10AA70008004C5F880040390A0690290E06801900A
:10AA8000A661E661D4E900126846904728E00421F7
:10AA90002846FEF7C2FD18B34FF484712846FEF72E
:10AAA000B1FDE8B121462846FFF70CFC616AA069B8
:10AAB000884215D1E06938B1E268616AA061206915
:10AAC000E6616662E06008E094F8290000B96F6012
:10AAD000C5F80883A661E268616A2046FFF70BFCAF
:10AAE0004FF48E7841462846FEF78CFD78B1206AF7
:10AAF0006169884202D294F8280020B34146284672
:10AB0000FEF785FD616911B12046FFF73BFF4FF469
:10AB1000A27841462846FEF775FD002818D0414628
:10AB20002846FEF774FD94F8290000B12F60A06953
:10AB300000280DD0A661E268616A04B02046BDE835
:10AB4000F047FFF7D8BB21462846FFF70BFFDEE7AB
:10AB5000BDE8FF871FB50A4601788DF800104168EF
:10AB60000191017A8DF80810C0680390044850F8EC
:10AB70002210001F50F82220684690471FBD000099
:10AB8000742000202DE9FF410C464FF492770546D2
:10AB90003946FEF748FD0026C0B139462846FEF783
:10ABA00047FD02208DF80000D5F88004C5F8800428
:10ABB0000390D5F83C058DF80800E0680190A66187
:10ABC000E661D4E900126846904723E04FF48877A5
:10ABD00039462846FEF727FDE0B139462846FEF7FC
:10ABE00027FDD5F83C15A069884213D1E06960B112
:10ABF000E268D5F8000220F02000C5F80002E06904
:10AC0000A0612069E661E06001E0A661E26820469B
:10AC1000FFF77CFB4FF4A27739462846FEF703FD89
:10AC200060B139462846FEF703FDA06930B1A66140
:10AC3000D5F83C152046E268FFF768FB4FF49077A3
:10AC400039462846FEF7EFFC002813D0394628463F
:10AC5000FEF7EEFC606900280CD0D5F84C058DF8A5
:10AC600000608DF80800A06801906661D4E90012C8
:10AC700068469047BDE8FF812DE9F05F8346DDE936
:10AC80000A4A994690460D460846012703E000BF50
:10AC9000B0FBF8F07F1C4045FAD2B94500D94F46C9
:10ACA0005FEACA7012D18CB15FEA8A7002D5B9F13D
:10ACB000000F01D0202607E0302605E03146584637
:10ACC000641EFCF701FD0CB1A742F7D35FF001064B
:10ACD000B9F1010F02D9A9F1010903E0B5FBF6F0C2
:10ACE000404502D306FB08F6F2E7DFF83C9000BFD0
:10ACF000B5FBF6F000FB165519F800105846FCF7A6
:10AD0000E3FCB6FBF8F6002EF2D15FEACA7009D078
:10AD1000002C07D0A74205D220215846641EFCF71C
:10AD2000D3FCF5E7BDE8F09F26AE02005468696EDB
:10AD30006779000006001800000090010401A000DF
:10AD400050000000000000000000111213140D0E4E
:10AD50000F100000010000000000000000000000D3
:10AD600000000000000000000000000000000000E3
:10AD700000000000000000000000000000000000D3
:10AD800000000000000000000000000000000000C3
:10AD900000000000000000000000000000000000B3
:10ADA00000000000000000000000000000000000A3
:10ADB0000000000000000000000000000000000093
:10ADC0000000000000000000000000000000000083
:10ADD000770A000000000000770A00000000000071
:10ADE0007ADA000000000000420074A9FF52109BB4
:10ADF0003349359B000068EF420074A9FF52109B55
:10AE00003349359B000068EF00000050B597020001
:10AE1000119A020000000000000000000000000085
:10AE20000338FDD87047303132333435363738394E
:10AE30004142434445460000BC2000200010000071
:10AE400004000000010000000000000000000000FD
:10AE500000000000000000000000000000000000F2
:10AE600048AE020060AE020004000000556E6B6E3A
:10AE70006F776E206572726F7220636F6465000079
:10AE8000000000001CB5020001000000C8B3020071
:10AE900002000000BCB10200030000003CB402004C
:10AEA0000400000090B402000500000070B302002E
:10AEB000060000000CB302000700000078B4020096
:10AEC0000800000084B3020009000000E8B302009B
:10AED0000A00000004B502000B000000A4B102004B
:10AEE0000C0000009CB302000D0000006CB50200D5
:10AEF0000E00000068B402000F000000A4B40200BD
:10AF000010000000D8B402001100000080B502005B
:10AF10001200000054B5020013000000F0B402005B
:10AF20008000000024B302008100000060B2020033
:10AF30008200000020B202008300000000B2020084
:10AF4000840000003CB202008500000048B302000B
:10AF50008600000050B4020090000000ECB2020035
:10AF600091000000E0B1020092000000B0B30200C6
:10AF700000820000B8B402000182000004B40200A4
:10AF80000282000020B40200008400007CB20200B3
:10AF90000184000028B5020002840000C4B202004F
:10AFA00003840000A0B202005D8B0200318B02001E
:10AFB000298B0200FFFFFFFFFFFFFFFFFFFFFFFFE7
:10AFC000FFFFFFFF00000000000000000000D601AE
:10AFD0000701000044B902004CB902000000000063
:10AFE0000000000001000007D4AF0200E4AF02003F
:10AFF000080000000CB002001CB0020008000000B5
:10B000001CB002002CB00200080000006CB9020065
:10B010007CB9020000000000000000005CB90200E2
:10B020006CB9020000000000000000000CB9020032
:10B0300014B9020014B902002CB902002CB90200A4
:10B040003CB902003CB9020044B90200701D002066
:10B050002CB002004CB00200080000004CB9020005
:10B060005CB9020000000000000000005CB00200BB
:10B070006CB00200080000000040404040404040EA
:10B0800040404141414141404040404040404040BB
:10B09000404040404040404040050202020202025F
:10B0A00002020202020202020220202020202020AE
:10B0B00020202002020202020202909090909090C2
:10B0C0001010101010101010101010101010101080
:10B0D00010101010020202020202888888888888F4
:10B0E00008080808080808080808080808080808E0
:10B0F00008080808020202024000000079B00200BD
:10B1000073645F626C655F6761705F646174615FE7
:10B110006C656E6774685F7570646174652829205A
:10B12000287265717565737429206F6E20636F6E68
:10B130006E656374696F6E2030782578207265744F
:10B1400075726E65642025732E00000054686520BA
:10B1500072657175657374656420636F6D62696E85
:10B160006174696F6E206F6620545820616E642090
:10B170005258207061636B6574206C656E677468EB
:10B180007320697320746F6F206C6F6E6720627913
:10B19000202575206D6963726F7365636F6E6473CC
:10B1A0002E0000004E52465F4552524F525F494EAC
:10B1B00056414C49445F4441544100004E52465F61
:10B1C0004552524F525F534F4654444556494345AA
:10B1D0005F4E4F545F454E41424C454400000000D5
:10B1E0004E52465F4552524F525F4645415455526A
:10B1F000455F4E4F545F454E41424C454400000070
:10B200004E52465F4552524F525F4D555445585F1E
:10B21000554E4C4F434B5F4641494C45440000005E
:10B220004E52465F4552524F525F4D555445585FFE
:10B230004C4F434B5F4641494C4544004E52465F9C
:10B240004552524F525F4D555445585F434F4E44FF
:10B250005F494E49545F4641494C45440000000057
:10B260004E52465F4552524F525F4D555445585FBE
:10B27000494E49545F4641494C4544004E52465F51
:10B280004552524F525F424C455F495053505F52B6
:10B29000585F504B545F5452554E434154454400FF
:10B2A0004E52465F4552524F525F424C455F4950A5
:10B2B00053505F504545525F52454A4543544544BB
:10B2C000000000004E52465F4552524F525F424CC2
:10B2D000455F495053505F4C494E4B5F444953437F
:10B2E0004F4E4E4543544544000000004E52465FC9
:10B2F0004552524F525F4150495F4E4F545F494D46
:10B30000504C454D454E5445440000004E52465F5A
:10B310004552524F525F4E4F545F535550504F520B
:10B32000544544004E52465F4552524F525F4D4F76
:10B3300044554C455F4E4F545F494E495449414C2A
:10B34000495A4544000000004E52465F4552524F54
:10B35000525F4D4F44554C455F414C524541445915
:10B360005F494E495449414C495A45440000000048
:10B370004E52465F4552524F525F4E4F545F464FBA
:10B38000554E44004E52465F4552524F525F494E11
:10B3900056414C49445F5354415445004E52465F18
:10B3A0004552524F525F444154415F53495A450000
:10B3B0004E52465F4552524F525F494F5F50454E85
:10B3C00044494E47000000004E52465F4552524FDE
:10B3D000525F5356435F48414E444C45525F4D497E
:10B3E0005353494E470000004E52465F4552524F5C
:10B3F000525F494E56414C49445F4C454E47544874
:10B40000000000004E52465F4552524F525F445278
:10B41000565F5457495F4552525F414E41434B007E
:10B420004E52465F4552524F525F4452565F5457F8
:10B43000495F4552525F444E41434B004E52465F76
:10B440004552524F525F494E5445524E414C0000B6
:10B450004E52465F4552524F525F53544F524147EE
:10B46000455F46554C4C00004E52465F4552524F88
:10B47000525F4E554C4C00004E52465F4552524F63
:10B48000525F494E56414C49445F504152414D0034
:10B490004E52465F4552524F525F4E4F5F4D454DA3
:10B4A000000000004E52465F4552524F525F464FD9
:10B4B0005242494444454E004E52465F4552524F17
:10B4C000525F4452565F5457495F4552525F4F5640
:10B4D000455252554E0000004E52465F4552524F63
:10B4E000525F494E56414C49445F4144445200002A
:10B4F0004E52465F4552524F525F5245534F55523E
:10B50000434553004E52465F4552524F525F494E9B
:10B5100056414C49445F464C414753004E52465FAA
:10B5200053554343455353004E52465F4552524F85
:10B53000525F424C455F495053505F4348414E4E25
:10B54000454C5F414C52454144595F45584953541D
:10B55000530000004E52465F4552524F525F434FD8
:10B560004E4E5F434F554E54000000004E52465F12
:10B570004552524F525F54494D454F5554000000BB
:10B580004E52465F4552524F525F4255535900004A
:10B590007761726E696E67006465627567000000AE
:10B5A0001B5B313B33306D001B5B306D00000000D6
:10B5B0001B5B313B33316D001B5B313B33326D0024
:10B5C0001B5B313B33336D001B5B313B33346D0010
:10B5D0001B5B313B33356D001B5B313B33366D00FC
:10B5E0001B5B313B33376D00696E666F00000000F6
:10B5F0006572726F7200000073645F626C655F63F6
:10B6000066675F73657428292072657475726E654C
:10B6100064202573207768656E20617474656D7091
:10B6200074696E6720746F2073657420424C455FA7
:10B6300047415454535F4346475F5345525649432D
:10B64000455F4348414E4745442E000073645F62A6
:10B650006C655F6366675F73657428292072657423
:10B6600075726E6564202573207768656E2061743D
:10B6700074656D7074696E6720746F2073657420D3
:10B68000424C455F434F4D4D4F4E5F4346475F56DB
:10B69000535F555549442E0073645F626C655F6368
:10B6A00066675F73657428292072657475726E65AC
:10B6B00064202573207768656E20617474656D70F1
:10B6C00074696E6720746F2073657420424C455F07
:10B6D00047415454535F4346475F415454525F546B
:10B6E00041425F53495A452E0000000073645F6277
:10B6F0006C655F6366675F73657428292072657483
:10B7000075726E6564202573207768656E2061749C
:10B7100074656D7074696E6720746F207365742032
:10B72000424C455F434F4E4E5F4346475F47415053
:10B730002E00000073645F626C655F6366675F7311
:10B74000657428292072657475726E65642025738E
:10B75000207768656E20617474656D7074696E67BA
:10B7600020746F2073657420424C455F4741505FE1
:10B770004346475F524F4C455F434F554E542E0052
:10B78000626C655F64625F64697363006E72665FBA
:10B79000626C655F6761747400000000626C655FD5
:10B7A0006C62735F63000000626C655F7465735F59
:10B7B00063000000636C6F636B000000434C4F43F9
:10B7C0004B0000004750494F544500005052530071
:10B7D00055415254000000005541525445000000AC
:10B7E0006E72665F6673746F726167650000000059
:10B7F00061746669666F2E6D5F6669666F00000032
:10B800007077725F6D676D740000000062616C6C30
:10B810006F632E6C6F675F6D656D706F6F6C00008E
:10B82000617070006E72665F736468006E72665F4E
:10B830007364685F626C65006E72665F7364685FF4
:10B84000736F63007CB90200701D00203404000097
:10B8500080640200CCB90200A4210020EC2C00007E
:10B860005C6A020080B70200000003038CB702008C
:10B87000000003039CB7020000000303A8B7020006
:10B8800000000303B4B7020000000000BCB70200D0
:10B8900000000000C4B7020000000000CCB70200A6
:10B8A00000000000D0B7020000000000D8B702007E
:10B8B00000000000E0B7020000000303F0B7020040
:10B8C0000000000300B80200000000000CB80200F5
:10B8D0000000000320B802000000030324B80200A7
:10B8E000000003032CB802000000030338B8020074
:10B8F000000003030C210020042100200C21002063
:10B90000AC2900209021002018000000897002005E
:10B910000000000091830200D82100204D6E02003B
:10B92000781D002019700200000000005172020012
:10B93000A42100202D740200B4210020056F020014
:10B9400000000000D5870200000000007DA4020076
:10B95000000000000D88020000000000A19302001A
:10B96000000000002D9502000000000091A30200DD
:10B9700000000000ED8702000000000013EC21032E
:10B98000FF201F01FF01CF0388FFFF138821021949
:10B99000201220AA40080425A8AF0214F0B5021A0C
:10B9A00090041AE8041A98041AA8041AA0041AB0F9
:10B9B000041AB8041AC0041AC8041AD0041AD80405
:0CB9C0001AE00451044890D0030000007D
:040000050002620192
:00000001FF
